{
  "_format": "hh-sol-artifact-1",
  "contractName": "MetaMusic",
  "sourceName": "contracts/MetaMusic.sol",
  "abi": [
    {
      "inputs": [],
      "stateMutability": "nonpayable",
      "type": "constructor"
    },
    {
      "anonymous": false,
      "inputs": [
        {
          "indexed": true,
          "internalType": "address",
          "name": "owner",
          "type": "address"
        },
        {
          "indexed": true,
          "internalType": "address",
          "name": "approved",
          "type": "address"
        },
        {
          "indexed": true,
          "internalType": "uint256",
          "name": "tokenId",
          "type": "uint256"
        }
      ],
      "name": "Approval",
      "type": "event"
    },
    {
      "anonymous": false,
      "inputs": [
        {
          "indexed": true,
          "internalType": "address",
          "name": "owner",
          "type": "address"
        },
        {
          "indexed": true,
          "internalType": "address",
          "name": "operator",
          "type": "address"
        },
        {
          "indexed": false,
          "internalType": "bool",
          "name": "approved",
          "type": "bool"
        }
      ],
      "name": "ApprovalForAll",
      "type": "event"
    },
    {
      "anonymous": false,
      "inputs": [
        {
          "indexed": false,
          "internalType": "address",
          "name": "songOwner",
          "type": "address"
        },
        {
          "indexed": false,
          "internalType": "uint256",
          "name": "tokenID",
          "type": "uint256"
        },
        {
          "indexed": false,
          "internalType": "string",
          "name": "musicLink",
          "type": "string"
        },
        {
          "indexed": false,
          "internalType": "string",
          "name": "metaDataLink",
          "type": "string"
        },
        {
          "indexed": false,
          "internalType": "string",
          "name": "songName",
          "type": "string"
        },
        {
          "indexed": false,
          "internalType": "string",
          "name": "singer",
          "type": "string"
        },
        {
          "indexed": false,
          "internalType": "string",
          "name": "albumName",
          "type": "string"
        },
        {
          "indexed": false,
          "internalType": "string",
          "name": "bannerImage",
          "type": "string"
        }
      ],
      "name": "MusicNFTMinted",
      "type": "event"
    },
    {
      "anonymous": false,
      "inputs": [
        {
          "indexed": true,
          "internalType": "address",
          "name": "from",
          "type": "address"
        },
        {
          "indexed": true,
          "internalType": "address",
          "name": "to",
          "type": "address"
        },
        {
          "indexed": true,
          "internalType": "uint256",
          "name": "tokenId",
          "type": "uint256"
        }
      ],
      "name": "Transfer",
      "type": "event"
    },
    {
      "inputs": [
        {
          "internalType": "address",
          "name": "to",
          "type": "address"
        },
        {
          "internalType": "uint256",
          "name": "tokenId",
          "type": "uint256"
        }
      ],
      "name": "approve",
      "outputs": [],
      "stateMutability": "nonpayable",
      "type": "function"
    },
    {
      "inputs": [
        {
          "internalType": "address",
          "name": "owner",
          "type": "address"
        }
      ],
      "name": "balanceOf",
      "outputs": [
        {
          "internalType": "uint256",
          "name": "",
          "type": "uint256"
        }
      ],
      "stateMutability": "view",
      "type": "function"
    },
    {
      "inputs": [
        {
          "internalType": "uint256",
          "name": "tokenID",
          "type": "uint256"
        }
      ],
      "name": "burnToken",
      "outputs": [],
      "stateMutability": "nonpayable",
      "type": "function"
    },
    {
      "inputs": [],
      "name": "getAllSongs",
      "outputs": [
        {
          "components": [
            {
              "internalType": "address",
              "name": "songOwner",
              "type": "address"
            },
            {
              "internalType": "uint256",
              "name": "tokenID",
              "type": "uint256"
            },
            {
              "internalType": "string",
              "name": "musicLink",
              "type": "string"
            },
            {
              "internalType": "string",
              "name": "metaDataLink",
              "type": "string"
            },
            {
              "internalType": "string",
              "name": "songName",
              "type": "string"
            },
            {
              "internalType": "string",
              "name": "singer",
              "type": "string"
            },
            {
              "internalType": "string",
              "name": "albumName",
              "type": "string"
            },
            {
              "internalType": "string",
              "name": "bannerImage",
              "type": "string"
            }
          ],
          "internalType": "struct MetaMusic.Song[]",
          "name": "",
          "type": "tuple[]"
        }
      ],
      "stateMutability": "view",
      "type": "function"
    },
    {
      "inputs": [
        {
          "internalType": "uint256",
          "name": "tokenId",
          "type": "uint256"
        }
      ],
      "name": "getApproved",
      "outputs": [
        {
          "internalType": "address",
          "name": "",
          "type": "address"
        }
      ],
      "stateMutability": "view",
      "type": "function"
    },
    {
      "inputs": [
        {
          "internalType": "address",
          "name": "owner",
          "type": "address"
        },
        {
          "internalType": "address",
          "name": "operator",
          "type": "address"
        }
      ],
      "name": "isApprovedForAll",
      "outputs": [
        {
          "internalType": "bool",
          "name": "",
          "type": "bool"
        }
      ],
      "stateMutability": "view",
      "type": "function"
    },
    {
      "inputs": [
        {
          "internalType": "string",
          "name": "musicLink_",
          "type": "string"
        },
        {
          "internalType": "string",
          "name": "metaDatalink",
          "type": "string"
        },
        {
          "internalType": "string",
          "name": "songName_",
          "type": "string"
        },
        {
          "internalType": "string",
          "name": "singer_",
          "type": "string"
        },
        {
          "internalType": "string",
          "name": "albumName_",
          "type": "string"
        },
        {
          "internalType": "string",
          "name": "bannerImage_",
          "type": "string"
        }
      ],
      "name": "mintMusicNFT",
      "outputs": [],
      "stateMutability": "nonpayable",
      "type": "function"
    },
    {
      "inputs": [],
      "name": "name",
      "outputs": [
        {
          "internalType": "string",
          "name": "",
          "type": "string"
        }
      ],
      "stateMutability": "view",
      "type": "function"
    },
    {
      "inputs": [
        {
          "internalType": "uint256",
          "name": "tokenId",
          "type": "uint256"
        }
      ],
      "name": "ownerOf",
      "outputs": [
        {
          "internalType": "address",
          "name": "",
          "type": "address"
        }
      ],
      "stateMutability": "view",
      "type": "function"
    },
    {
      "inputs": [
        {
          "internalType": "address",
          "name": "from",
          "type": "address"
        },
        {
          "internalType": "address",
          "name": "to",
          "type": "address"
        },
        {
          "internalType": "uint256",
          "name": "tokenId",
          "type": "uint256"
        }
      ],
      "name": "safeTransferFrom",
      "outputs": [],
      "stateMutability": "nonpayable",
      "type": "function"
    },
    {
      "inputs": [
        {
          "internalType": "address",
          "name": "from",
          "type": "address"
        },
        {
          "internalType": "address",
          "name": "to",
          "type": "address"
        },
        {
          "internalType": "uint256",
          "name": "tokenId",
          "type": "uint256"
        },
        {
          "internalType": "bytes",
          "name": "data",
          "type": "bytes"
        }
      ],
      "name": "safeTransferFrom",
      "outputs": [],
      "stateMutability": "nonpayable",
      "type": "function"
    },
    {
      "inputs": [
        {
          "internalType": "address",
          "name": "operator",
          "type": "address"
        },
        {
          "internalType": "bool",
          "name": "approved",
          "type": "bool"
        }
      ],
      "name": "setApprovalForAll",
      "outputs": [],
      "stateMutability": "nonpayable",
      "type": "function"
    },
    {
      "inputs": [
        {
          "internalType": "bytes4",
          "name": "interfaceId",
          "type": "bytes4"
        }
      ],
      "name": "supportsInterface",
      "outputs": [
        {
          "internalType": "bool",
          "name": "",
          "type": "bool"
        }
      ],
      "stateMutability": "view",
      "type": "function"
    },
    {
      "inputs": [],
      "name": "symbol",
      "outputs": [
        {
          "internalType": "string",
          "name": "",
          "type": "string"
        }
      ],
      "stateMutability": "view",
      "type": "function"
    },
    {
      "inputs": [
        {
          "internalType": "address payable",
          "name": "songOwner_",
          "type": "address"
        }
      ],
      "name": "tipToOwner",
      "outputs": [],
      "stateMutability": "payable",
      "type": "function"
    },
    {
      "inputs": [
        {
          "internalType": "uint256",
          "name": "index",
          "type": "uint256"
        }
      ],
      "name": "tokenByIndex",
      "outputs": [
        {
          "internalType": "uint256",
          "name": "",
          "type": "uint256"
        }
      ],
      "stateMutability": "view",
      "type": "function"
    },
    {
      "inputs": [
        {
          "internalType": "address",
          "name": "owner",
          "type": "address"
        },
        {
          "internalType": "uint256",
          "name": "index",
          "type": "uint256"
        }
      ],
      "name": "tokenOfOwnerByIndex",
      "outputs": [
        {
          "internalType": "uint256",
          "name": "",
          "type": "uint256"
        }
      ],
      "stateMutability": "view",
      "type": "function"
    },
    {
      "inputs": [
        {
          "internalType": "uint256",
          "name": "tokenId",
          "type": "uint256"
        }
      ],
      "name": "tokenURI",
      "outputs": [
        {
          "internalType": "string",
          "name": "",
          "type": "string"
        }
      ],
      "stateMutability": "view",
      "type": "function"
    },
    {
      "inputs": [],
      "name": "totalSupply",
      "outputs": [
        {
          "internalType": "uint256",
          "name": "",
          "type": "uint256"
        }
      ],
      "stateMutability": "view",
      "type": "function"
    },
    {
      "inputs": [
        {
          "internalType": "address",
          "name": "from",
          "type": "address"
        },
        {
          "internalType": "address",
          "name": "to",
          "type": "address"
        },
        {
          "internalType": "uint256",
          "name": "tokenId",
          "type": "uint256"
        }
      ],
      "name": "transferFrom",
      "outputs": [],
      "stateMutability": "nonpayable",
      "type": "function"
    }
  ],
  "bytecode": "0x60806040523480156200001157600080fd5b506040518060400160405280600c81526020017f53504f54494659544f4b454e00000000000000000000000000000000000000008152506040518060400160405280600481526020017f5350543300000000000000000000000000000000000000000000000000000000815250816000908051906020019062000096929190620000b8565b508060019080519060200190620000af929190620000b8565b505050620001cd565b828054620000c69062000197565b90600052602060002090601f016020900481019282620000ea576000855562000136565b82601f106200010557805160ff191683800117855562000136565b8280016001018555821562000136579182015b828111156200013557825182559160200191906001019062000118565b5b50905062000145919062000149565b5090565b5b80821115620001645760008160009055506001016200014a565b5090565b7f4e487b7100000000000000000000000000000000000000000000000000000000600052602260045260246000fd5b60006002820490506001821680620001b057607f821691505b60208210811415620001c757620001c662000168565b5b50919050565b613ef280620001dd6000396000f3fe60806040526004361061011f5760003560e01c80636352211e116100a057806395d89b411161006457806395d89b41146103fc578063a22cb46514610427578063b88d4fde14610450578063c87b56dd14610479578063e985e9c5146104b65761011f565b80636352211e1461031457806370a08231146103515780637b47ec1a1461038e5780638d2a657f146103b75780638f238e3c146103d35761011f565b806323b872dd116100e757806323b872dd1461021d57806329ef6862146102465780632f745c591461027157806342842e0e146102ae5780634f6ccce7146102d75761011f565b806301ffc9a71461012457806306fdde0314610161578063081812fc1461018c578063095ea7b3146101c957806318160ddd146101f2575b600080fd5b34801561013057600080fd5b5061014b600480360381019061014691906128f8565b6104f3565b6040516101589190612940565b60405180910390f35b34801561016d57600080fd5b50610176610505565b60405161018391906129f4565b60405180910390f35b34801561019857600080fd5b506101b360048036038101906101ae9190612a4c565b610597565b6040516101c09190612aba565b60405180910390f35b3480156101d557600080fd5b506101f060048036038101906101eb9190612b01565b6105dd565b005b3480156101fe57600080fd5b506102076106f5565b6040516102149190612b50565b60405180910390f35b34801561022957600080fd5b50610244600480360381019061023f9190612b6b565b610702565b005b34801561025257600080fd5b5061025b610762565b6040516102689190612dbb565b60405180910390f35b34801561027d57600080fd5b5061029860048036038101906102939190612b01565b610b8e565b6040516102a59190612b50565b60405180910390f35b3480156102ba57600080fd5b506102d560048036038101906102d09190612b6b565b610c33565b005b3480156102e357600080fd5b506102fe60048036038101906102f99190612a4c565b610c53565b60405161030b9190612b50565b60405180910390f35b34801561032057600080fd5b5061033b60048036038101906103369190612a4c565b610cc4565b6040516103489190612aba565b60405180910390f35b34801561035d57600080fd5b5061037860048036038101906103739190612ddd565b610d76565b6040516103859190612b50565b60405180910390f35b34801561039a57600080fd5b506103b560048036038101906103b09190612a4c565b610e2e565b005b6103d160048036038101906103cc9190612e48565b610e3a565b005b3480156103df57600080fd5b506103fa60048036038101906103f59190612faa565b610ec7565b005b34801561040857600080fd5b506104116110bd565b60405161041e91906129f4565b60405180910390f35b34801561043357600080fd5b5061044e6004803603810190610449919061310b565b61114f565b005b34801561045c57600080fd5b50610477600480360381019061047291906131ec565b611165565b005b34801561048557600080fd5b506104a0600480360381019061049b9190612a4c565b6111c7565b6040516104ad91906129f4565b60405180910390f35b3480156104c257600080fd5b506104dd60048036038101906104d8919061326f565b6111d9565b6040516104ea9190612940565b60405180910390f35b60006104fe8261126d565b9050919050565b606060008054610514906132de565b80601f0160208091040260200160405190810160405280929190818152602001828054610540906132de565b801561058d5780601f106105625761010080835404028352916020019161058d565b820191906000526020600020905b81548152906001019060200180831161057057829003601f168201915b5050505050905090565b60006105a2826112e7565b6004600083815260200190815260200160002060009054906101000a900473ffffffffffffffffffffffffffffffffffffffff169050919050565b60006105e882610cc4565b90508073ffffffffffffffffffffffffffffffffffffffff168373ffffffffffffffffffffffffffffffffffffffff161415610659576040517f08c379a000000000000000000000000000000000000000000000000000000000815260040161065090613382565b60405180910390fd5b8073ffffffffffffffffffffffffffffffffffffffff16610678611332565b73ffffffffffffffffffffffffffffffffffffffff1614806106a757506106a6816106a1611332565b6111d9565b5b6106e6576040517f08c379a00000000000000000000000000000000000000000000000000000000081526004016106dd90613414565b60405180910390fd5b6106f0838361133a565b505050565b6000600880549050905090565b61071361070d611332565b826113f3565b610752576040517f08c379a0000000000000000000000000000000000000000000000000000000008152600401610749906134a6565b60405180910390fd5b61075d838383611488565b505050565b6060600c805480602002602001604051908101604052809291908181526020016000905b82821015610b855783829060005260206000209060080201604051806101000160405290816000820160009054906101000a900473ffffffffffffffffffffffffffffffffffffffff1673ffffffffffffffffffffffffffffffffffffffff1673ffffffffffffffffffffffffffffffffffffffff1681526020016001820154815260200160028201805461081a906132de565b80601f0160208091040260200160405190810160405280929190818152602001828054610846906132de565b80156108935780601f1061086857610100808354040283529160200191610893565b820191906000526020600020905b81548152906001019060200180831161087657829003601f168201915b505050505081526020016003820180546108ac906132de565b80601f01602080910402602001604051908101604052809291908181526020018280546108d8906132de565b80156109255780601f106108fa57610100808354040283529160200191610925565b820191906000526020600020905b81548152906001019060200180831161090857829003601f168201915b5050505050815260200160048201805461093e906132de565b80601f016020809104026020016040519081016040528092919081815260200182805461096a906132de565b80156109b75780601f1061098c576101008083540402835291602001916109b7565b820191906000526020600020905b81548152906001019060200180831161099a57829003601f168201915b505050505081526020016005820180546109d0906132de565b80601f01602080910402602001604051908101604052809291908181526020018280546109fc906132de565b8015610a495780601f10610a1e57610100808354040283529160200191610a49565b820191906000526020600020905b815481529060010190602001808311610a2c57829003601f168201915b50505050508152602001600682018054610a62906132de565b80601f0160208091040260200160405190810160405280929190818152602001828054610a8e906132de565b8015610adb5780601f10610ab057610100808354040283529160200191610adb565b820191906000526020600020905b815481529060010190602001808311610abe57829003601f168201915b50505050508152602001600782018054610af4906132de565b80601f0160208091040260200160405190810160405280929190818152602001828054610b20906132de565b8015610b6d5780601f10610b4257610100808354040283529160200191610b6d565b820191906000526020600020905b815481529060010190602001808311610b5057829003601f168201915b50505050508152505081526020019060010190610786565b50505050905090565b6000610b9983610d76565b8210610bda576040517f08c379a0000000000000000000000000000000000000000000000000000000008152600401610bd190613538565b60405180910390fd5b600660008473ffffffffffffffffffffffffffffffffffffffff1673ffffffffffffffffffffffffffffffffffffffff168152602001908152602001600020600083815260200190815260200160002054905092915050565b610c4e83838360405180602001604052806000815250611165565b505050565b6000610c5d6106f5565b8210610c9e576040517f08c379a0000000000000000000000000000000000000000000000000000000008152600401610c95906135ca565b60405180910390fd5b60088281548110610cb257610cb16135ea565b5b90600052602060002001549050919050565b6000806002600084815260200190815260200160002060009054906101000a900473ffffffffffffffffffffffffffffffffffffffff169050600073ffffffffffffffffffffffffffffffffffffffff168173ffffffffffffffffffffffffffffffffffffffff161415610d6d576040517f08c379a0000000000000000000000000000000000000000000000000000000008152600401610d6490613665565b60405180910390fd5b80915050919050565b60008073ffffffffffffffffffffffffffffffffffffffff168273ffffffffffffffffffffffffffffffffffffffff161415610de7576040517f08c379a0000000000000000000000000000000000000000000000000000000008152600401610dde906136f7565b60405180910390fd5b600360008373ffffffffffffffffffffffffffffffffffffffff1673ffffffffffffffffffffffffffffffffffffffff168152602001908152602001600020549050919050565b610e37816116ef565b50565b60003411610e7d576040517f08c379a0000000000000000000000000000000000000000000000000000000008152600401610e7490613763565b60405180910390fd5b8073ffffffffffffffffffffffffffffffffffffffff166108fc349081150290604051600060405180830381858888f19350505050158015610ec3573d6000803e3d6000fd5b5050565b6000610ed3600b6116fb565b9050610edf600b611709565b610ee9338261171f565b610ef3818761173d565b600c6040518061010001604052803373ffffffffffffffffffffffffffffffffffffffff16815260200183815260200189815260200188815260200187815260200186815260200185815260200184815250908060018154018082558091505060019003906000526020600020906008020160009091909190915060008201518160000160006101000a81548173ffffffffffffffffffffffffffffffffffffffff021916908373ffffffffffffffffffffffffffffffffffffffff160217905550602082015181600101556040820151816002019080519060200190610fdb9291906127a9565b506060820151816003019080519060200190610ff89291906127a9565b5060808201518160040190805190602001906110159291906127a9565b5060a08201518160050190805190602001906110329291906127a9565b5060c082015181600601908051906020019061104f9291906127a9565b5060e082015181600701908051906020019061106c9291906127a9565b5050507fea7788f3bcadad059203f7d608e3a4353d59249baa9e146fdead4a6dd75d42bf33828989898989896040516110ac989796959493929190613783565b60405180910390a150505050505050565b6060600180546110cc906132de565b80601f01602080910402602001604051908101604052809291908181526020018280546110f8906132de565b80156111455780601f1061111a57610100808354040283529160200191611145565b820191906000526020600020905b81548152906001019060200180831161112857829003601f168201915b5050505050905090565b61116161115a611332565b83836117b1565b5050565b611176611170611332565b836113f3565b6111b5576040517f08c379a00000000000000000000000000000000000000000000000000000000081526004016111ac906134a6565b60405180910390fd5b6111c18484848461191e565b50505050565b60606111d28261197a565b9050919050565b6000600560008473ffffffffffffffffffffffffffffffffffffffff1673ffffffffffffffffffffffffffffffffffffffff16815260200190815260200160002060008373ffffffffffffffffffffffffffffffffffffffff1673ffffffffffffffffffffffffffffffffffffffff16815260200190815260200160002060009054906101000a900460ff16905092915050565b60007f780e9d63000000000000000000000000000000000000000000000000000000007bffffffffffffffffffffffffffffffffffffffffffffffffffffffff1916827bffffffffffffffffffffffffffffffffffffffffffffffffffffffff191614806112e057506112df82611a8d565b5b9050919050565b6112f081611b6f565b61132f576040517f08c379a000000000000000000000000000000000000000000000000000000000815260040161132690613665565b60405180910390fd5b50565b600033905090565b816004600083815260200190815260200160002060006101000a81548173ffffffffffffffffffffffffffffffffffffffff021916908373ffffffffffffffffffffffffffffffffffffffff160217905550808273ffffffffffffffffffffffffffffffffffffffff166113ad83610cc4565b73ffffffffffffffffffffffffffffffffffffffff167f8c5be1e5ebec7d5bd14f71427d1e84f3dd0314c0f7b2291e5b200ac8c7c3b92560405160405180910390a45050565b6000806113ff83610cc4565b90508073ffffffffffffffffffffffffffffffffffffffff168473ffffffffffffffffffffffffffffffffffffffff161480611441575061144081856111d9565b5b8061147f57508373ffffffffffffffffffffffffffffffffffffffff1661146784610597565b73ffffffffffffffffffffffffffffffffffffffff16145b91505092915050565b8273ffffffffffffffffffffffffffffffffffffffff166114a882610cc4565b73ffffffffffffffffffffffffffffffffffffffff16146114fe576040517f08c379a00000000000000000000000000000000000000000000000000000000081526004016114f59061389d565b60405180910390fd5b600073ffffffffffffffffffffffffffffffffffffffff168273ffffffffffffffffffffffffffffffffffffffff16141561156e576040517f08c379a00000000000000000000000000000000000000000000000000000000081526004016115659061392f565b60405180910390fd5b611579838383611bdb565b61158460008261133a565b6001600360008573ffffffffffffffffffffffffffffffffffffffff1673ffffffffffffffffffffffffffffffffffffffff16815260200190815260200160002060008282546115d4919061397e565b925050819055506001600360008473ffffffffffffffffffffffffffffffffffffffff1673ffffffffffffffffffffffffffffffffffffffff168152602001908152602001600020600082825461162b91906139b2565b92505081905550816002600083815260200190815260200160002060006101000a81548173ffffffffffffffffffffffffffffffffffffffff021916908373ffffffffffffffffffffffffffffffffffffffff160217905550808273ffffffffffffffffffffffffffffffffffffffff168473ffffffffffffffffffffffffffffffffffffffff167fddf252ad1be2c89b69c2b068fc378daa952ba7f163c4a11628f55a4df523b3ef60405160405180910390a46116ea838383611beb565b505050565b6116f881611bf0565b50565b600081600001549050919050565b6001816000016000828254019250508190555050565b611739828260405180602001604052806000815250611c43565b5050565b61174682611b6f565b611785576040517f08c379a000000000000000000000000000000000000000000000000000000000815260040161177c90613a7a565b60405180910390fd5b80600a600084815260200190815260200160002090805190602001906117ac9291906127a9565b505050565b8173ffffffffffffffffffffffffffffffffffffffff168373ffffffffffffffffffffffffffffffffffffffff161415611820576040517f08c379a000000000000000000000000000000000000000000000000000000000815260040161181790613ae6565b60405180910390fd5b80600560008573ffffffffffffffffffffffffffffffffffffffff1673ffffffffffffffffffffffffffffffffffffffff16815260200190815260200160002060008473ffffffffffffffffffffffffffffffffffffffff1673ffffffffffffffffffffffffffffffffffffffff16815260200190815260200160002060006101000a81548160ff0219169083151502179055508173ffffffffffffffffffffffffffffffffffffffff168373ffffffffffffffffffffffffffffffffffffffff167f17307eab39ab6107e8899845ad3d59bd9653f200f220920489ca2b5937696c31836040516119119190612940565b60405180910390a3505050565b611929848484611488565b61193584848484611c9e565b611974576040517f08c379a000000000000000000000000000000000000000000000000000000000815260040161196b90613b78565b60405180910390fd5b50505050565b6060611985826112e7565b6000600a600084815260200190815260200160002080546119a5906132de565b80601f01602080910402602001604051908101604052809291908181526020018280546119d1906132de565b8015611a1e5780601f106119f357610100808354040283529160200191611a1e565b820191906000526020600020905b815481529060010190602001808311611a0157829003601f168201915b505050505090506000611a2f611e26565b9050600081511415611a45578192505050611a88565b600082511115611a7a578082604051602001611a62929190613bd4565b60405160208183030381529060405292505050611a88565b611a8384611e3d565b925050505b919050565b60007f80ac58cd000000000000000000000000000000000000000000000000000000007bffffffffffffffffffffffffffffffffffffffffffffffffffffffff1916827bffffffffffffffffffffffffffffffffffffffffffffffffffffffff19161480611b5857507f5b5e139f000000000000000000000000000000000000000000000000000000007bffffffffffffffffffffffffffffffffffffffffffffffffffffffff1916827bffffffffffffffffffffffffffffffffffffffffffffffffffffffff1916145b80611b685750611b6782611ea5565b5b9050919050565b60008073ffffffffffffffffffffffffffffffffffffffff166002600084815260200190815260200160002060009054906101000a900473ffffffffffffffffffffffffffffffffffffffff1673ffffffffffffffffffffffffffffffffffffffff1614159050919050565b611be6838383611f0f565b505050565b505050565b611bf981612023565b6000600a60008381526020019081526020016000208054611c19906132de565b905014611c4057600a60008281526020019081526020016000206000611c3f919061282f565b5b50565b611c4d8383612140565b611c5a6000848484611c9e565b611c99576040517f08c379a0000000000000000000000000000000000000000000000000000000008152600401611c9090613b78565b60405180910390fd5b505050565b6000611cbf8473ffffffffffffffffffffffffffffffffffffffff1661231a565b15611e19578373ffffffffffffffffffffffffffffffffffffffff1663150b7a02611ce8611332565b8786866040518563ffffffff1660e01b8152600401611d0a9493929190613c4d565b6020604051808303816000875af1925050508015611d4657506040513d601f19601f82011682018060405250810190611d439190613cae565b60015b611dc9573d8060008114611d76576040519150601f19603f3d011682016040523d82523d6000602084013e611d7b565b606091505b50600081511415611dc1576040517f08c379a0000000000000000000000000000000000000000000000000000000008152600401611db890613b78565b60405180910390fd5b805181602001fd5b63150b7a0260e01b7bffffffffffffffffffffffffffffffffffffffffffffffffffffffff1916817bffffffffffffffffffffffffffffffffffffffffffffffffffffffff191614915050611e1e565b600190505b949350505050565b606060405180602001604052806000815250905090565b6060611e48826112e7565b6000611e52611e26565b90506000815111611e725760405180602001604052806000815250611e9d565b80611e7c8461233d565b604051602001611e8d929190613bd4565b6040516020818303038152906040525b915050919050565b60007f01ffc9a7000000000000000000000000000000000000000000000000000000007bffffffffffffffffffffffffffffffffffffffffffffffffffffffff1916827bffffffffffffffffffffffffffffffffffffffffffffffffffffffff1916149050919050565b611f1a83838361249e565b600073ffffffffffffffffffffffffffffffffffffffff168373ffffffffffffffffffffffffffffffffffffffff161415611f5d57611f58816124a3565b611f9c565b8173ffffffffffffffffffffffffffffffffffffffff168373ffffffffffffffffffffffffffffffffffffffff1614611f9b57611f9a83826124ec565b5b5b600073ffffffffffffffffffffffffffffffffffffffff168273ffffffffffffffffffffffffffffffffffffffff161415611fdf57611fda81612659565b61201e565b8273ffffffffffffffffffffffffffffffffffffffff168273ffffffffffffffffffffffffffffffffffffffff161461201d5761201c828261272a565b5b5b505050565b600061202e82610cc4565b905061203c81600084611bdb565b61204760008361133a565b6001600360008373ffffffffffffffffffffffffffffffffffffffff1673ffffffffffffffffffffffffffffffffffffffff1681526020019081526020016000206000828254612097919061397e565b925050819055506002600083815260200190815260200160002060006101000a81549073ffffffffffffffffffffffffffffffffffffffff021916905581600073ffffffffffffffffffffffffffffffffffffffff168273ffffffffffffffffffffffffffffffffffffffff167fddf252ad1be2c89b69c2b068fc378daa952ba7f163c4a11628f55a4df523b3ef60405160405180910390a461213c81600084611beb565b5050565b600073ffffffffffffffffffffffffffffffffffffffff168273ffffffffffffffffffffffffffffffffffffffff1614156121b0576040517f08c379a00000000000000000000000000000000000000000000000000000000081526004016121a790613d27565b60405180910390fd5b6121b981611b6f565b156121f9576040517f08c379a00000000000000000000000000000000000000000000000000000000081526004016121f090613d93565b60405180910390fd5b61220560008383611bdb565b6001600360008473ffffffffffffffffffffffffffffffffffffffff1673ffffffffffffffffffffffffffffffffffffffff168152602001908152602001600020600082825461225591906139b2565b92505081905550816002600083815260200190815260200160002060006101000a81548173ffffffffffffffffffffffffffffffffffffffff021916908373ffffffffffffffffffffffffffffffffffffffff160217905550808273ffffffffffffffffffffffffffffffffffffffff16600073ffffffffffffffffffffffffffffffffffffffff167fddf252ad1be2c89b69c2b068fc378daa952ba7f163c4a11628f55a4df523b3ef60405160405180910390a461231660008383611beb565b5050565b6000808273ffffffffffffffffffffffffffffffffffffffff163b119050919050565b60606000821415612385576040518060400160405280600181526020017f30000000000000000000000000000000000000000000000000000000000000008152509050612499565b600082905060005b600082146123b75780806123a090613db3565b915050600a826123b09190613e2b565b915061238d565b60008167ffffffffffffffff8111156123d3576123d2612e7f565b5b6040519080825280601f01601f1916602001820160405280156124055781602001600182028036833780820191505090505b5090505b600085146124925760018261241e919061397e565b9150600a8561242d9190613e5c565b603061243991906139b2565b60f81b81838151811061244f5761244e6135ea565b5b60200101907effffffffffffffffffffffffffffffffffffffffffffffffffffffffffffff1916908160001a905350600a8561248b9190613e2b565b9450612409565b8093505050505b919050565b505050565b6008805490506009600083815260200190815260200160002081905550600881908060018154018082558091505060019003906000526020600020016000909190919091505550565b600060016124f984610d76565b612503919061397e565b90506000600760008481526020019081526020016000205490508181146125e8576000600660008673ffffffffffffffffffffffffffffffffffffffff1673ffffffffffffffffffffffffffffffffffffffff168152602001908152602001600020600084815260200190815260200160002054905080600660008773ffffffffffffffffffffffffffffffffffffffff1673ffffffffffffffffffffffffffffffffffffffff168152602001908152602001600020600084815260200190815260200160002081905550816007600083815260200190815260200160002081905550505b6007600084815260200190815260200160002060009055600660008573ffffffffffffffffffffffffffffffffffffffff1673ffffffffffffffffffffffffffffffffffffffff16815260200190815260200160002060008381526020019081526020016000206000905550505050565b6000600160088054905061266d919061397e565b905060006009600084815260200190815260200160002054905060006008838154811061269d5761269c6135ea565b5b9060005260206000200154905080600883815481106126bf576126be6135ea565b5b90600052602060002001819055508160096000838152602001908152602001600020819055506009600085815260200190815260200160002060009055600880548061270e5761270d613e8d565b5b6001900381819060005260206000200160009055905550505050565b600061273583610d76565b905081600660008573ffffffffffffffffffffffffffffffffffffffff1673ffffffffffffffffffffffffffffffffffffffff168152602001908152602001600020600083815260200190815260200160002081905550806007600084815260200190815260200160002081905550505050565b8280546127b5906132de565b90600052602060002090601f0160209004810192826127d7576000855561281e565b82601f106127f057805160ff191683800117855561281e565b8280016001018555821561281e579182015b8281111561281d578251825591602001919060010190612802565b5b50905061282b919061286f565b5090565b50805461283b906132de565b6000825580601f1061284d575061286c565b601f01602090049060005260206000209081019061286b919061286f565b5b50565b5b80821115612888576000816000905550600101612870565b5090565b6000604051905090565b600080fd5b600080fd5b60007fffffffff0000000000000000000000000000000000000000000000000000000082169050919050565b6128d5816128a0565b81146128e057600080fd5b50565b6000813590506128f2816128cc565b92915050565b60006020828403121561290e5761290d612896565b5b600061291c848285016128e3565b91505092915050565b60008115159050919050565b61293a81612925565b82525050565b60006020820190506129556000830184612931565b92915050565b600081519050919050565b600082825260208201905092915050565b60005b8381101561299557808201518184015260208101905061297a565b838111156129a4576000848401525b50505050565b6000601f19601f8301169050919050565b60006129c68261295b565b6129d08185612966565b93506129e0818560208601612977565b6129e9816129aa565b840191505092915050565b60006020820190508181036000830152612a0e81846129bb565b905092915050565b6000819050919050565b612a2981612a16565b8114612a3457600080fd5b50565b600081359050612a4681612a20565b92915050565b600060208284031215612a6257612a61612896565b5b6000612a7084828501612a37565b91505092915050565b600073ffffffffffffffffffffffffffffffffffffffff82169050919050565b6000612aa482612a79565b9050919050565b612ab481612a99565b82525050565b6000602082019050612acf6000830184612aab565b92915050565b612ade81612a99565b8114612ae957600080fd5b50565b600081359050612afb81612ad5565b92915050565b60008060408385031215612b1857612b17612896565b5b6000612b2685828601612aec565b9250506020612b3785828601612a37565b9150509250929050565b612b4a81612a16565b82525050565b6000602082019050612b656000830184612b41565b92915050565b600080600060608486031215612b8457612b83612896565b5b6000612b9286828701612aec565b9350506020612ba386828701612aec565b9250506040612bb486828701612a37565b9150509250925092565b600081519050919050565b600082825260208201905092915050565b6000819050602082019050919050565b612bf381612a99565b82525050565b612c0281612a16565b82525050565b600082825260208201905092915050565b6000612c248261295b565b612c2e8185612c08565b9350612c3e818560208601612977565b612c47816129aa565b840191505092915050565b600061010083016000830151612c6b6000860182612bea565b506020830151612c7e6020860182612bf9565b5060408301518482036040860152612c968282612c19565b91505060608301518482036060860152612cb08282612c19565b91505060808301518482036080860152612cca8282612c19565b91505060a083015184820360a0860152612ce48282612c19565b91505060c083015184820360c0860152612cfe8282612c19565b91505060e083015184820360e0860152612d188282612c19565b9150508091505092915050565b6000612d318383612c52565b905092915050565b6000602082019050919050565b6000612d5182612bbe565b612d5b8185612bc9565b935083602082028501612d6d85612bda565b8060005b85811015612da95784840389528151612d8a8582612d25565b9450612d9583612d39565b925060208a01995050600181019050612d71565b50829750879550505050505092915050565b60006020820190508181036000830152612dd58184612d46565b905092915050565b600060208284031215612df357612df2612896565b5b6000612e0184828501612aec565b91505092915050565b6000612e1582612a79565b9050919050565b612e2581612e0a565b8114612e3057600080fd5b50565b600081359050612e4281612e1c565b92915050565b600060208284031215612e5e57612e5d612896565b5b6000612e6c84828501612e33565b91505092915050565b600080fd5b600080fd5b7f4e487b7100000000000000000000000000000000000000000000000000000000600052604160045260246000fd5b612eb7826129aa565b810181811067ffffffffffffffff82111715612ed657612ed5612e7f565b5b80604052505050565b6000612ee961288c565b9050612ef58282612eae565b919050565b600067ffffffffffffffff821115612f1557612f14612e7f565b5b612f1e826129aa565b9050602081019050919050565b82818337600083830152505050565b6000612f4d612f4884612efa565b612edf565b905082815260208101848484011115612f6957612f68612e7a565b5b612f74848285612f2b565b509392505050565b600082601f830112612f9157612f90612e75565b5b8135612fa1848260208601612f3a565b91505092915050565b60008060008060008060c08789031215612fc757612fc6612896565b5b600087013567ffffffffffffffff811115612fe557612fe461289b565b5b612ff189828a01612f7c565b965050602087013567ffffffffffffffff8111156130125761301161289b565b5b61301e89828a01612f7c565b955050604087013567ffffffffffffffff81111561303f5761303e61289b565b5b61304b89828a01612f7c565b945050606087013567ffffffffffffffff81111561306c5761306b61289b565b5b61307889828a01612f7c565b935050608087013567ffffffffffffffff8111156130995761309861289b565b5b6130a589828a01612f7c565b92505060a087013567ffffffffffffffff8111156130c6576130c561289b565b5b6130d289828a01612f7c565b9150509295509295509295565b6130e881612925565b81146130f357600080fd5b50565b600081359050613105816130df565b92915050565b6000806040838503121561312257613121612896565b5b600061313085828601612aec565b9250506020613141858286016130f6565b9150509250929050565b600067ffffffffffffffff82111561316657613165612e7f565b5b61316f826129aa565b9050602081019050919050565b600061318f61318a8461314b565b612edf565b9050828152602081018484840111156131ab576131aa612e7a565b5b6131b6848285612f2b565b509392505050565b600082601f8301126131d3576131d2612e75565b5b81356131e384826020860161317c565b91505092915050565b6000806000806080858703121561320657613205612896565b5b600061321487828801612aec565b945050602061322587828801612aec565b935050604061323687828801612a37565b925050606085013567ffffffffffffffff8111156132575761325661289b565b5b613263878288016131be565b91505092959194509250565b6000806040838503121561328657613285612896565b5b600061329485828601612aec565b92505060206132a585828601612aec565b9150509250929050565b7f4e487b7100000000000000000000000000000000000000000000000000000000600052602260045260246000fd5b600060028204905060018216806132f657607f821691505b6020821081141561330a576133096132af565b5b50919050565b7f4552433732313a20617070726f76616c20746f2063757272656e74206f776e6560008201527f7200000000000000000000000000000000000000000000000000000000000000602082015250565b600061336c602183612966565b915061337782613310565b604082019050919050565b6000602082019050818103600083015261339b8161335f565b9050919050565b7f4552433732313a20617070726f76652063616c6c6572206973206e6f7420746f60008201527f6b656e206f776e6572206e6f7220617070726f76656420666f7220616c6c0000602082015250565b60006133fe603e83612966565b9150613409826133a2565b604082019050919050565b6000602082019050818103600083015261342d816133f1565b9050919050565b7f4552433732313a2063616c6c6572206973206e6f7420746f6b656e206f776e6560008201527f72206e6f7220617070726f766564000000000000000000000000000000000000602082015250565b6000613490602e83612966565b915061349b82613434565b604082019050919050565b600060208201905081810360008301526134bf81613483565b9050919050565b7f455243373231456e756d657261626c653a206f776e657220696e646578206f7560008201527f74206f6620626f756e6473000000000000000000000000000000000000000000602082015250565b6000613522602b83612966565b915061352d826134c6565b604082019050919050565b6000602082019050818103600083015261355181613515565b9050919050565b7f455243373231456e756d657261626c653a20676c6f62616c20696e646578206f60008201527f7574206f6620626f756e64730000000000000000000000000000000000000000602082015250565b60006135b4602c83612966565b91506135bf82613558565b604082019050919050565b600060208201905081810360008301526135e3816135a7565b9050919050565b7f4e487b7100000000000000000000000000000000000000000000000000000000600052603260045260246000fd5b7f4552433732313a20696e76616c696420746f6b656e2049440000000000000000600082015250565b600061364f601883612966565b915061365a82613619565b602082019050919050565b6000602082019050818103600083015261367e81613642565b9050919050565b7f4552433732313a2061646472657373207a65726f206973206e6f74206120766160008201527f6c6964206f776e65720000000000000000000000000000000000000000000000602082015250565b60006136e1602983612966565b91506136ec82613685565b604082019050919050565b60006020820190508181036000830152613710816136d4565b9050919050565b7f4d75666174206d65206e616d206b616d616e6120686169000000000000000000600082015250565b600061374d601783612966565b915061375882613717565b602082019050919050565b6000602082019050818103600083015261377c81613740565b9050919050565b600061010082019050613799600083018b612aab565b6137a6602083018a612b41565b81810360408301526137b881896129bb565b905081810360608301526137cc81886129bb565b905081810360808301526137e081876129bb565b905081810360a08301526137f481866129bb565b905081810360c083015261380881856129bb565b905081810360e083015261381c81846129bb565b90509998505050505050505050565b7f4552433732313a207472616e736665722066726f6d20696e636f72726563742060008201527f6f776e6572000000000000000000000000000000000000000000000000000000602082015250565b6000613887602583612966565b91506138928261382b565b604082019050919050565b600060208201905081810360008301526138b68161387a565b9050919050565b7f4552433732313a207472616e7366657220746f20746865207a65726f2061646460008201527f7265737300000000000000000000000000000000000000000000000000000000602082015250565b6000613919602483612966565b9150613924826138bd565b604082019050919050565b600060208201905081810360008301526139488161390c565b9050919050565b7f4e487b7100000000000000000000000000000000000000000000000000000000600052601160045260246000fd5b600061398982612a16565b915061399483612a16565b9250828210156139a7576139a661394f565b5b828203905092915050565b60006139bd82612a16565b91506139c883612a16565b9250827fffffffffffffffffffffffffffffffffffffffffffffffffffffffffffffffff038211156139fd576139fc61394f565b5b828201905092915050565b7f45524337323155524953746f726167653a2055524920736574206f66206e6f6e60008201527f6578697374656e7420746f6b656e000000000000000000000000000000000000602082015250565b6000613a64602e83612966565b9150613a6f82613a08565b604082019050919050565b60006020820190508181036000830152613a9381613a57565b9050919050565b7f4552433732313a20617070726f766520746f2063616c6c657200000000000000600082015250565b6000613ad0601983612966565b9150613adb82613a9a565b602082019050919050565b60006020820190508181036000830152613aff81613ac3565b9050919050565b7f4552433732313a207472616e7366657220746f206e6f6e20455243373231526560008201527f63656976657220696d706c656d656e7465720000000000000000000000000000602082015250565b6000613b62603283612966565b9150613b6d82613b06565b604082019050919050565b60006020820190508181036000830152613b9181613b55565b9050919050565b600081905092915050565b6000613bae8261295b565b613bb88185613b98565b9350613bc8818560208601612977565b80840191505092915050565b6000613be08285613ba3565b9150613bec8284613ba3565b91508190509392505050565b600081519050919050565b600082825260208201905092915050565b6000613c1f82613bf8565b613c298185613c03565b9350613c39818560208601612977565b613c42816129aa565b840191505092915050565b6000608082019050613c626000830187612aab565b613c6f6020830186612aab565b613c7c6040830185612b41565b8181036060830152613c8e8184613c14565b905095945050505050565b600081519050613ca8816128cc565b92915050565b600060208284031215613cc457613cc3612896565b5b6000613cd284828501613c99565b91505092915050565b7f4552433732313a206d696e7420746f20746865207a65726f2061646472657373600082015250565b6000613d11602083612966565b9150613d1c82613cdb565b602082019050919050565b60006020820190508181036000830152613d4081613d04565b9050919050565b7f4552433732313a20746f6b656e20616c7265616479206d696e74656400000000600082015250565b6000613d7d601c83612966565b9150613d8882613d47565b602082019050919050565b60006020820190508181036000830152613dac81613d70565b9050919050565b6000613dbe82612a16565b91507fffffffffffffffffffffffffffffffffffffffffffffffffffffffffffffffff821415613df157613df061394f565b5b600182019050919050565b7f4e487b7100000000000000000000000000000000000000000000000000000000600052601260045260246000fd5b6000613e3682612a16565b9150613e4183612a16565b925082613e5157613e50613dfc565b5b828204905092915050565b6000613e6782612a16565b9150613e7283612a16565b925082613e8257613e81613dfc565b5b828206905092915050565b7f4e487b7100000000000000000000000000000000000000000000000000000000600052603160045260246000fdfea2646970667358221220fd446705bcbed1404bf21beeac0c0f0f98d1ef4a60dc96de069587ec685fd42c64736f6c634300080a0033",
  "linkReferences": {},
  "deployedLinkReferences": {}
}