{
  "_format": "hh-sol-artifact-1",
  "contractName": "MetaMusic",
  "sourceName": "contracts/MetaMusic.sol",
  "abi": [
    {
      "inputs": [],
      "stateMutability": "nonpayable",
      "type": "constructor"
    },
    {
      "anonymous": false,
      "inputs": [
        {
          "indexed": true,
          "internalType": "address",
          "name": "owner",
          "type": "address"
        },
        {
          "indexed": true,
          "internalType": "address",
          "name": "approved",
          "type": "address"
        },
        {
          "indexed": true,
          "internalType": "uint256",
          "name": "tokenId",
          "type": "uint256"
        }
      ],
      "name": "Approval",
      "type": "event"
    },
    {
      "anonymous": false,
      "inputs": [
        {
          "indexed": true,
          "internalType": "address",
          "name": "owner",
          "type": "address"
        },
        {
          "indexed": true,
          "internalType": "address",
          "name": "operator",
          "type": "address"
        },
        {
          "indexed": false,
          "internalType": "bool",
          "name": "approved",
          "type": "bool"
        }
      ],
      "name": "ApprovalForAll",
      "type": "event"
    },
    {
      "anonymous": false,
      "inputs": [
        {
          "indexed": false,
          "internalType": "address",
          "name": "songOwner",
          "type": "address"
        },
        {
          "indexed": false,
          "internalType": "uint256",
          "name": "tokenID",
          "type": "uint256"
        },
        {
          "indexed": false,
          "internalType": "string",
          "name": "musicLink",
          "type": "string"
        },
        {
          "indexed": false,
          "internalType": "string",
          "name": "metaDataLink",
          "type": "string"
        },
        {
          "indexed": false,
          "internalType": "string",
          "name": "songName",
          "type": "string"
        },
        {
          "indexed": false,
          "internalType": "string",
          "name": "singer",
          "type": "string"
        },
        {
          "indexed": false,
          "internalType": "string",
          "name": "albumName",
          "type": "string"
        },
        {
          "indexed": false,
          "internalType": "string",
          "name": "bannerImage",
          "type": "string"
        }
      ],
      "name": "MusicNFTMinted",
      "type": "event"
    },
    {
      "anonymous": false,
      "inputs": [
        {
          "indexed": true,
          "internalType": "address",
          "name": "from",
          "type": "address"
        },
        {
          "indexed": true,
          "internalType": "address",
          "name": "to",
          "type": "address"
        },
        {
          "indexed": true,
          "internalType": "uint256",
          "name": "tokenId",
          "type": "uint256"
        }
      ],
      "name": "Transfer",
      "type": "event"
    },
    {
      "inputs": [
        {
          "internalType": "address",
          "name": "to",
          "type": "address"
        },
        {
          "internalType": "uint256",
          "name": "tokenId",
          "type": "uint256"
        }
      ],
      "name": "approve",
      "outputs": [],
      "stateMutability": "nonpayable",
      "type": "function"
    },
    {
      "inputs": [
        {
          "internalType": "address",
          "name": "owner",
          "type": "address"
        }
      ],
      "name": "balanceOf",
      "outputs": [
        {
          "internalType": "uint256",
          "name": "",
          "type": "uint256"
        }
      ],
      "stateMutability": "view",
      "type": "function"
    },
    {
      "inputs": [],
      "name": "getAllSongs",
      "outputs": [
        {
          "components": [
            {
              "internalType": "address",
              "name": "songOwner",
              "type": "address"
            },
            {
              "internalType": "uint256",
              "name": "tokenID",
              "type": "uint256"
            },
            {
              "internalType": "string",
              "name": "musicLink",
              "type": "string"
            },
            {
              "internalType": "string",
              "name": "metaDataLink",
              "type": "string"
            },
            {
              "internalType": "string",
              "name": "songName",
              "type": "string"
            },
            {
              "internalType": "string",
              "name": "singer",
              "type": "string"
            },
            {
              "internalType": "string",
              "name": "albumName",
              "type": "string"
            },
            {
              "internalType": "string",
              "name": "bannerImage",
              "type": "string"
            }
          ],
          "internalType": "struct MetaMusic.Song[]",
          "name": "",
          "type": "tuple[]"
        }
      ],
      "stateMutability": "view",
      "type": "function"
    },
    {
      "inputs": [
        {
          "internalType": "uint256",
          "name": "tokenId",
          "type": "uint256"
        }
      ],
      "name": "getApproved",
      "outputs": [
        {
          "internalType": "address",
          "name": "",
          "type": "address"
        }
      ],
      "stateMutability": "view",
      "type": "function"
    },
    {
      "inputs": [
        {
          "internalType": "address",
          "name": "owner",
          "type": "address"
        },
        {
          "internalType": "address",
          "name": "operator",
          "type": "address"
        }
      ],
      "name": "isApprovedForAll",
      "outputs": [
        {
          "internalType": "bool",
          "name": "",
          "type": "bool"
        }
      ],
      "stateMutability": "view",
      "type": "function"
    },
    {
      "inputs": [
        {
          "internalType": "string",
          "name": "musicLink_",
          "type": "string"
        },
        {
          "internalType": "string",
          "name": "metaDatalink",
          "type": "string"
        },
        {
          "internalType": "string",
          "name": "songName_",
          "type": "string"
        },
        {
          "internalType": "string",
          "name": "singer_",
          "type": "string"
        },
        {
          "internalType": "string",
          "name": "albumName_",
          "type": "string"
        },
        {
          "internalType": "string",
          "name": "bannerImage_",
          "type": "string"
        }
      ],
      "name": "mintMusicNFT",
      "outputs": [],
      "stateMutability": "nonpayable",
      "type": "function"
    },
    {
      "inputs": [],
      "name": "name",
      "outputs": [
        {
          "internalType": "string",
          "name": "",
          "type": "string"
        }
      ],
      "stateMutability": "view",
      "type": "function"
    },
    {
      "inputs": [
        {
          "internalType": "uint256",
          "name": "tokenId",
          "type": "uint256"
        }
      ],
      "name": "ownerOf",
      "outputs": [
        {
          "internalType": "address",
          "name": "",
          "type": "address"
        }
      ],
      "stateMutability": "view",
      "type": "function"
    },
    {
      "inputs": [
        {
          "internalType": "address",
          "name": "from",
          "type": "address"
        },
        {
          "internalType": "address",
          "name": "to",
          "type": "address"
        },
        {
          "internalType": "uint256",
          "name": "tokenId",
          "type": "uint256"
        }
      ],
      "name": "safeTransferFrom",
      "outputs": [],
      "stateMutability": "nonpayable",
      "type": "function"
    },
    {
      "inputs": [
        {
          "internalType": "address",
          "name": "from",
          "type": "address"
        },
        {
          "internalType": "address",
          "name": "to",
          "type": "address"
        },
        {
          "internalType": "uint256",
          "name": "tokenId",
          "type": "uint256"
        },
        {
          "internalType": "bytes",
          "name": "data",
          "type": "bytes"
        }
      ],
      "name": "safeTransferFrom",
      "outputs": [],
      "stateMutability": "nonpayable",
      "type": "function"
    },
    {
      "inputs": [
        {
          "internalType": "address",
          "name": "operator",
          "type": "address"
        },
        {
          "internalType": "bool",
          "name": "approved",
          "type": "bool"
        }
      ],
      "name": "setApprovalForAll",
      "outputs": [],
      "stateMutability": "nonpayable",
      "type": "function"
    },
    {
      "inputs": [
        {
          "internalType": "bytes4",
          "name": "interfaceId",
          "type": "bytes4"
        }
      ],
      "name": "supportsInterface",
      "outputs": [
        {
          "internalType": "bool",
          "name": "",
          "type": "bool"
        }
      ],
      "stateMutability": "view",
      "type": "function"
    },
    {
      "inputs": [],
      "name": "symbol",
      "outputs": [
        {
          "internalType": "string",
          "name": "",
          "type": "string"
        }
      ],
      "stateMutability": "view",
      "type": "function"
    },
    {
      "inputs": [
        {
          "internalType": "address payable",
          "name": "songOwner_",
          "type": "address"
        }
      ],
      "name": "tipToOwner",
      "outputs": [],
      "stateMutability": "payable",
      "type": "function"
    },
    {
      "inputs": [
        {
          "internalType": "uint256",
          "name": "index",
          "type": "uint256"
        }
      ],
      "name": "tokenByIndex",
      "outputs": [
        {
          "internalType": "uint256",
          "name": "",
          "type": "uint256"
        }
      ],
      "stateMutability": "view",
      "type": "function"
    },
    {
      "inputs": [
        {
          "internalType": "address",
          "name": "owner",
          "type": "address"
        },
        {
          "internalType": "uint256",
          "name": "index",
          "type": "uint256"
        }
      ],
      "name": "tokenOfOwnerByIndex",
      "outputs": [
        {
          "internalType": "uint256",
          "name": "",
          "type": "uint256"
        }
      ],
      "stateMutability": "view",
      "type": "function"
    },
    {
      "inputs": [
        {
          "internalType": "uint256",
          "name": "tokenId",
          "type": "uint256"
        }
      ],
      "name": "tokenURI",
      "outputs": [
        {
          "internalType": "string",
          "name": "",
          "type": "string"
        }
      ],
      "stateMutability": "view",
      "type": "function"
    },
    {
      "inputs": [],
      "name": "totalSupply",
      "outputs": [
        {
          "internalType": "uint256",
          "name": "",
          "type": "uint256"
        }
      ],
      "stateMutability": "view",
      "type": "function"
    },
    {
      "inputs": [
        {
          "internalType": "address",
          "name": "from",
          "type": "address"
        },
        {
          "internalType": "address",
          "name": "to",
          "type": "address"
        },
        {
          "internalType": "uint256",
          "name": "tokenId",
          "type": "uint256"
        }
      ],
      "name": "transferFrom",
      "outputs": [],
      "stateMutability": "nonpayable",
      "type": "function"
    }
  ],
  "bytecode": "0x60806040523480156200001157600080fd5b506040518060400160405280600981526020017f4d6574614d7573696300000000000000000000000000000000000000000000008152506040518060400160405280600381526020017f4d544d0000000000000000000000000000000000000000000000000000000000815250816000908051906020019062000096929190620000b8565b508060019080519060200190620000af929190620000b8565b505050620001cd565b828054620000c69062000197565b90600052602060002090601f016020900481019282620000ea576000855562000136565b82601f106200010557805160ff191683800117855562000136565b8280016001018555821562000136579182015b828111156200013557825182559160200191906001019062000118565b5b50905062000145919062000149565b5090565b5b80821115620001645760008160009055506001016200014a565b5090565b7f4e487b7100000000000000000000000000000000000000000000000000000000600052602260045260246000fd5b60006002820490506001821680620001b057607f821691505b60208210811415620001c757620001c662000168565b5b50919050565b613cf680620001dd6000396000f3fe6080604052600436106101145760003560e01c80634f6ccce7116100a057806395d89b411161006457806395d89b41146103c8578063a22cb465146103f3578063b88d4fde1461041c578063c87b56dd14610445578063e985e9c51461048257610114565b80634f6ccce7146102cc5780636352211e1461030957806370a08231146103465780638d2a657f146103835780638f238e3c1461039f57610114565b806318160ddd116100e757806318160ddd146101e757806323b872dd1461021257806329ef68621461023b5780632f745c591461026657806342842e0e146102a357610114565b806301ffc9a71461011957806306fdde0314610156578063081812fc14610181578063095ea7b3146101be575b600080fd5b34801561012557600080fd5b50610140600480360381019061013b91906126fc565b6104bf565b60405161014d9190612744565b60405180910390f35b34801561016257600080fd5b5061016b6104d1565b60405161017891906127f8565b60405180910390f35b34801561018d57600080fd5b506101a860048036038101906101a39190612850565b610563565b6040516101b591906128be565b60405180910390f35b3480156101ca57600080fd5b506101e560048036038101906101e09190612905565b6105a9565b005b3480156101f357600080fd5b506101fc6106c1565b6040516102099190612954565b60405180910390f35b34801561021e57600080fd5b506102396004803603810190610234919061296f565b6106ce565b005b34801561024757600080fd5b5061025061072e565b60405161025d9190612bbf565b60405180910390f35b34801561027257600080fd5b5061028d60048036038101906102889190612905565b610b5a565b60405161029a9190612954565b60405180910390f35b3480156102af57600080fd5b506102ca60048036038101906102c5919061296f565b610bff565b005b3480156102d857600080fd5b506102f360048036038101906102ee9190612850565b610c1f565b6040516103009190612954565b60405180910390f35b34801561031557600080fd5b50610330600480360381019061032b9190612850565b610c90565b60405161033d91906128be565b60405180910390f35b34801561035257600080fd5b5061036d60048036038101906103689190612be1565b610d42565b60405161037a9190612954565b60405180910390f35b61039d60048036038101906103989190612c4c565b610dfa565b005b3480156103ab57600080fd5b506103c660048036038101906103c19190612dae565b610e87565b005b3480156103d457600080fd5b506103dd61107d565b6040516103ea91906127f8565b60405180910390f35b3480156103ff57600080fd5b5061041a60048036038101906104159190612f0f565b61110f565b005b34801561042857600080fd5b50610443600480360381019061043e9190612ff0565b611125565b005b34801561045157600080fd5b5061046c60048036038101906104679190612850565b611187565b60405161047991906127f8565b60405180910390f35b34801561048e57600080fd5b506104a960048036038101906104a49190613073565b611199565b6040516104b69190612744565b60405180910390f35b60006104ca8261122d565b9050919050565b6060600080546104e0906130e2565b80601f016020809104026020016040519081016040528092919081815260200182805461050c906130e2565b80156105595780601f1061052e57610100808354040283529160200191610559565b820191906000526020600020905b81548152906001019060200180831161053c57829003601f168201915b5050505050905090565b600061056e826112a7565b6004600083815260200190815260200160002060009054906101000a900473ffffffffffffffffffffffffffffffffffffffff169050919050565b60006105b482610c90565b90508073ffffffffffffffffffffffffffffffffffffffff168373ffffffffffffffffffffffffffffffffffffffff161415610625576040517f08c379a000000000000000000000000000000000000000000000000000000000815260040161061c90613186565b60405180910390fd5b8073ffffffffffffffffffffffffffffffffffffffff166106446112f2565b73ffffffffffffffffffffffffffffffffffffffff16148061067357506106728161066d6112f2565b611199565b5b6106b2576040517f08c379a00000000000000000000000000000000000000000000000000000000081526004016106a990613218565b60405180910390fd5b6106bc83836112fa565b505050565b6000600880549050905090565b6106df6106d96112f2565b826113b3565b61071e576040517f08c379a0000000000000000000000000000000000000000000000000000000008152600401610715906132aa565b60405180910390fd5b610729838383611448565b505050565b6060600c805480602002602001604051908101604052809291908181526020016000905b82821015610b515783829060005260206000209060080201604051806101000160405290816000820160009054906101000a900473ffffffffffffffffffffffffffffffffffffffff1673ffffffffffffffffffffffffffffffffffffffff1673ffffffffffffffffffffffffffffffffffffffff168152602001600182015481526020016002820180546107e6906130e2565b80601f0160208091040260200160405190810160405280929190818152602001828054610812906130e2565b801561085f5780601f106108345761010080835404028352916020019161085f565b820191906000526020600020905b81548152906001019060200180831161084257829003601f168201915b50505050508152602001600382018054610878906130e2565b80601f01602080910402602001604051908101604052809291908181526020018280546108a4906130e2565b80156108f15780601f106108c6576101008083540402835291602001916108f1565b820191906000526020600020905b8154815290600101906020018083116108d457829003601f168201915b5050505050815260200160048201805461090a906130e2565b80601f0160208091040260200160405190810160405280929190818152602001828054610936906130e2565b80156109835780601f1061095857610100808354040283529160200191610983565b820191906000526020600020905b81548152906001019060200180831161096657829003601f168201915b5050505050815260200160058201805461099c906130e2565b80601f01602080910402602001604051908101604052809291908181526020018280546109c8906130e2565b8015610a155780601f106109ea57610100808354040283529160200191610a15565b820191906000526020600020905b8154815290600101906020018083116109f857829003601f168201915b50505050508152602001600682018054610a2e906130e2565b80601f0160208091040260200160405190810160405280929190818152602001828054610a5a906130e2565b8015610aa75780601f10610a7c57610100808354040283529160200191610aa7565b820191906000526020600020905b815481529060010190602001808311610a8a57829003601f168201915b50505050508152602001600782018054610ac0906130e2565b80601f0160208091040260200160405190810160405280929190818152602001828054610aec906130e2565b8015610b395780601f10610b0e57610100808354040283529160200191610b39565b820191906000526020600020905b815481529060010190602001808311610b1c57829003601f168201915b50505050508152505081526020019060010190610752565b50505050905090565b6000610b6583610d42565b8210610ba6576040517f08c379a0000000000000000000000000000000000000000000000000000000008152600401610b9d9061333c565b60405180910390fd5b600660008473ffffffffffffffffffffffffffffffffffffffff1673ffffffffffffffffffffffffffffffffffffffff168152602001908152602001600020600083815260200190815260200160002054905092915050565b610c1a83838360405180602001604052806000815250611125565b505050565b6000610c296106c1565b8210610c6a576040517f08c379a0000000000000000000000000000000000000000000000000000000008152600401610c61906133ce565b60405180910390fd5b60088281548110610c7e57610c7d6133ee565b5b90600052602060002001549050919050565b6000806002600084815260200190815260200160002060009054906101000a900473ffffffffffffffffffffffffffffffffffffffff169050600073ffffffffffffffffffffffffffffffffffffffff168173ffffffffffffffffffffffffffffffffffffffff161415610d39576040517f08c379a0000000000000000000000000000000000000000000000000000000008152600401610d3090613469565b60405180910390fd5b80915050919050565b60008073ffffffffffffffffffffffffffffffffffffffff168273ffffffffffffffffffffffffffffffffffffffff161415610db3576040517f08c379a0000000000000000000000000000000000000000000000000000000008152600401610daa906134fb565b60405180910390fd5b600360008373ffffffffffffffffffffffffffffffffffffffff1673ffffffffffffffffffffffffffffffffffffffff168152602001908152602001600020549050919050565b60003411610e3d576040517f08c379a0000000000000000000000000000000000000000000000000000000008152600401610e3490613567565b60405180910390fd5b8073ffffffffffffffffffffffffffffffffffffffff166108fc349081150290604051600060405180830381858888f19350505050158015610e83573d6000803e3d6000fd5b5050565b6000610e93600b6116af565b9050610e9f600b6116bd565b610ea933826116d3565b610eb381876116f1565b600c6040518061010001604052803373ffffffffffffffffffffffffffffffffffffffff16815260200183815260200189815260200188815260200187815260200186815260200185815260200184815250908060018154018082558091505060019003906000526020600020906008020160009091909190915060008201518160000160006101000a81548173ffffffffffffffffffffffffffffffffffffffff021916908373ffffffffffffffffffffffffffffffffffffffff160217905550602082015181600101556040820151816002019080519060200190610f9b9291906125ed565b506060820151816003019080519060200190610fb89291906125ed565b506080820151816004019080519060200190610fd59291906125ed565b5060a0820151816005019080519060200190610ff29291906125ed565b5060c082015181600601908051906020019061100f9291906125ed565b5060e082015181600701908051906020019061102c9291906125ed565b5050507fea7788f3bcadad059203f7d608e3a4353d59249baa9e146fdead4a6dd75d42bf338289898989898960405161106c989796959493929190613587565b60405180910390a150505050505050565b60606001805461108c906130e2565b80601f01602080910402602001604051908101604052809291908181526020018280546110b8906130e2565b80156111055780601f106110da57610100808354040283529160200191611105565b820191906000526020600020905b8154815290600101906020018083116110e857829003601f168201915b5050505050905090565b61112161111a6112f2565b8383611765565b5050565b6111366111306112f2565b836113b3565b611175576040517f08c379a000000000000000000000000000000000000000000000000000000000815260040161116c906132aa565b60405180910390fd5b611181848484846118d2565b50505050565b60606111928261192e565b9050919050565b6000600560008473ffffffffffffffffffffffffffffffffffffffff1673ffffffffffffffffffffffffffffffffffffffff16815260200190815260200160002060008373ffffffffffffffffffffffffffffffffffffffff1673ffffffffffffffffffffffffffffffffffffffff16815260200190815260200160002060009054906101000a900460ff16905092915050565b60007f780e9d63000000000000000000000000000000000000000000000000000000007bffffffffffffffffffffffffffffffffffffffffffffffffffffffff1916827bffffffffffffffffffffffffffffffffffffffffffffffffffffffff191614806112a0575061129f82611a41565b5b9050919050565b6112b081611b23565b6112ef576040517f08c379a00000000000000000000000000000000000000000000000000000000081526004016112e690613469565b60405180910390fd5b50565b600033905090565b816004600083815260200190815260200160002060006101000a81548173ffffffffffffffffffffffffffffffffffffffff021916908373ffffffffffffffffffffffffffffffffffffffff160217905550808273ffffffffffffffffffffffffffffffffffffffff1661136d83610c90565b73ffffffffffffffffffffffffffffffffffffffff167f8c5be1e5ebec7d5bd14f71427d1e84f3dd0314c0f7b2291e5b200ac8c7c3b92560405160405180910390a45050565b6000806113bf83610c90565b90508073ffffffffffffffffffffffffffffffffffffffff168473ffffffffffffffffffffffffffffffffffffffff16148061140157506114008185611199565b5b8061143f57508373ffffffffffffffffffffffffffffffffffffffff1661142784610563565b73ffffffffffffffffffffffffffffffffffffffff16145b91505092915050565b8273ffffffffffffffffffffffffffffffffffffffff1661146882610c90565b73ffffffffffffffffffffffffffffffffffffffff16146114be576040517f08c379a00000000000000000000000000000000000000000000000000000000081526004016114b5906136a1565b60405180910390fd5b600073ffffffffffffffffffffffffffffffffffffffff168273ffffffffffffffffffffffffffffffffffffffff16141561152e576040517f08c379a000000000000000000000000000000000000000000000000000000000815260040161152590613733565b60405180910390fd5b611539838383611b8f565b6115446000826112fa565b6001600360008573ffffffffffffffffffffffffffffffffffffffff1673ffffffffffffffffffffffffffffffffffffffff16815260200190815260200160002060008282546115949190613782565b925050819055506001600360008473ffffffffffffffffffffffffffffffffffffffff1673ffffffffffffffffffffffffffffffffffffffff16815260200190815260200160002060008282546115eb91906137b6565b92505081905550816002600083815260200190815260200160002060006101000a81548173ffffffffffffffffffffffffffffffffffffffff021916908373ffffffffffffffffffffffffffffffffffffffff160217905550808273ffffffffffffffffffffffffffffffffffffffff168473ffffffffffffffffffffffffffffffffffffffff167fddf252ad1be2c89b69c2b068fc378daa952ba7f163c4a11628f55a4df523b3ef60405160405180910390a46116aa838383611b9f565b505050565b600081600001549050919050565b6001816000016000828254019250508190555050565b6116ed828260405180602001604052806000815250611ba4565b5050565b6116fa82611b23565b611739576040517f08c379a00000000000000000000000000000000000000000000000000000000081526004016117309061387e565b60405180910390fd5b80600a600084815260200190815260200160002090805190602001906117609291906125ed565b505050565b8173ffffffffffffffffffffffffffffffffffffffff168373ffffffffffffffffffffffffffffffffffffffff1614156117d4576040517f08c379a00000000000000000000000000000000000000000000000000000000081526004016117cb906138ea565b60405180910390fd5b80600560008573ffffffffffffffffffffffffffffffffffffffff1673ffffffffffffffffffffffffffffffffffffffff16815260200190815260200160002060008473ffffffffffffffffffffffffffffffffffffffff1673ffffffffffffffffffffffffffffffffffffffff16815260200190815260200160002060006101000a81548160ff0219169083151502179055508173ffffffffffffffffffffffffffffffffffffffff168373ffffffffffffffffffffffffffffffffffffffff167f17307eab39ab6107e8899845ad3d59bd9653f200f220920489ca2b5937696c31836040516118c59190612744565b60405180910390a3505050565b6118dd848484611448565b6118e984848484611bff565b611928576040517f08c379a000000000000000000000000000000000000000000000000000000000815260040161191f9061397c565b60405180910390fd5b50505050565b6060611939826112a7565b6000600a60008481526020019081526020016000208054611959906130e2565b80601f0160208091040260200160405190810160405280929190818152602001828054611985906130e2565b80156119d25780601f106119a7576101008083540402835291602001916119d2565b820191906000526020600020905b8154815290600101906020018083116119b557829003601f168201915b5050505050905060006119e3611d87565b90506000815114156119f9578192505050611a3c565b600082511115611a2e578082604051602001611a169291906139d8565b60405160208183030381529060405292505050611a3c565b611a3784611d9e565b925050505b919050565b60007f80ac58cd000000000000000000000000000000000000000000000000000000007bffffffffffffffffffffffffffffffffffffffffffffffffffffffff1916827bffffffffffffffffffffffffffffffffffffffffffffffffffffffff19161480611b0c57507f5b5e139f000000000000000000000000000000000000000000000000000000007bffffffffffffffffffffffffffffffffffffffffffffffffffffffff1916827bffffffffffffffffffffffffffffffffffffffffffffffffffffffff1916145b80611b1c5750611b1b82611e06565b5b9050919050565b60008073ffffffffffffffffffffffffffffffffffffffff166002600084815260200190815260200160002060009054906101000a900473ffffffffffffffffffffffffffffffffffffffff1673ffffffffffffffffffffffffffffffffffffffff1614159050919050565b611b9a838383611e70565b505050565b505050565b611bae8383611f84565b611bbb6000848484611bff565b611bfa576040517f08c379a0000000000000000000000000000000000000000000000000000000008152600401611bf19061397c565b60405180910390fd5b505050565b6000611c208473ffffffffffffffffffffffffffffffffffffffff1661215e565b15611d7a578373ffffffffffffffffffffffffffffffffffffffff1663150b7a02611c496112f2565b8786866040518563ffffffff1660e01b8152600401611c6b9493929190613a51565b6020604051808303816000875af1925050508015611ca757506040513d601f19601f82011682018060405250810190611ca49190613ab2565b60015b611d2a573d8060008114611cd7576040519150601f19603f3d011682016040523d82523d6000602084013e611cdc565b606091505b50600081511415611d22576040517f08c379a0000000000000000000000000000000000000000000000000000000008152600401611d199061397c565b60405180910390fd5b805181602001fd5b63150b7a0260e01b7bffffffffffffffffffffffffffffffffffffffffffffffffffffffff1916817bffffffffffffffffffffffffffffffffffffffffffffffffffffffff191614915050611d7f565b600190505b949350505050565b606060405180602001604052806000815250905090565b6060611da9826112a7565b6000611db3611d87565b90506000815111611dd35760405180602001604052806000815250611dfe565b80611ddd84612181565b604051602001611dee9291906139d8565b6040516020818303038152906040525b915050919050565b60007f01ffc9a7000000000000000000000000000000000000000000000000000000007bffffffffffffffffffffffffffffffffffffffffffffffffffffffff1916827bffffffffffffffffffffffffffffffffffffffffffffffffffffffff1916149050919050565b611e7b8383836122e2565b600073ffffffffffffffffffffffffffffffffffffffff168373ffffffffffffffffffffffffffffffffffffffff161415611ebe57611eb9816122e7565b611efd565b8173ffffffffffffffffffffffffffffffffffffffff168373ffffffffffffffffffffffffffffffffffffffff1614611efc57611efb8382612330565b5b5b600073ffffffffffffffffffffffffffffffffffffffff168273ffffffffffffffffffffffffffffffffffffffff161415611f4057611f3b8161249d565b611f7f565b8273ffffffffffffffffffffffffffffffffffffffff168273ffffffffffffffffffffffffffffffffffffffff1614611f7e57611f7d828261256e565b5b5b505050565b600073ffffffffffffffffffffffffffffffffffffffff168273ffffffffffffffffffffffffffffffffffffffff161415611ff4576040517f08c379a0000000000000000000000000000000000000000000000000000000008152600401611feb90613b2b565b60405180910390fd5b611ffd81611b23565b1561203d576040517f08c379a000000000000000000000000000000000000000000000000000000000815260040161203490613b97565b60405180910390fd5b61204960008383611b8f565b6001600360008473ffffffffffffffffffffffffffffffffffffffff1673ffffffffffffffffffffffffffffffffffffffff168152602001908152602001600020600082825461209991906137b6565b92505081905550816002600083815260200190815260200160002060006101000a81548173ffffffffffffffffffffffffffffffffffffffff021916908373ffffffffffffffffffffffffffffffffffffffff160217905550808273ffffffffffffffffffffffffffffffffffffffff16600073ffffffffffffffffffffffffffffffffffffffff167fddf252ad1be2c89b69c2b068fc378daa952ba7f163c4a11628f55a4df523b3ef60405160405180910390a461215a60008383611b9f565b5050565b6000808273ffffffffffffffffffffffffffffffffffffffff163b119050919050565b606060008214156121c9576040518060400160405280600181526020017f300000000000000000000000000000000000000000000000000000000000000081525090506122dd565b600082905060005b600082146121fb5780806121e490613bb7565b915050600a826121f49190613c2f565b91506121d1565b60008167ffffffffffffffff81111561221757612216612c83565b5b6040519080825280601f01601f1916602001820160405280156122495781602001600182028036833780820191505090505b5090505b600085146122d6576001826122629190613782565b9150600a856122719190613c60565b603061227d91906137b6565b60f81b818381518110612293576122926133ee565b5b60200101907effffffffffffffffffffffffffffffffffffffffffffffffffffffffffffff1916908160001a905350600a856122cf9190613c2f565b945061224d565b8093505050505b919050565b505050565b6008805490506009600083815260200190815260200160002081905550600881908060018154018082558091505060019003906000526020600020016000909190919091505550565b6000600161233d84610d42565b6123479190613782565b905060006007600084815260200190815260200160002054905081811461242c576000600660008673ffffffffffffffffffffffffffffffffffffffff1673ffffffffffffffffffffffffffffffffffffffff168152602001908152602001600020600084815260200190815260200160002054905080600660008773ffffffffffffffffffffffffffffffffffffffff1673ffffffffffffffffffffffffffffffffffffffff168152602001908152602001600020600084815260200190815260200160002081905550816007600083815260200190815260200160002081905550505b6007600084815260200190815260200160002060009055600660008573ffffffffffffffffffffffffffffffffffffffff1673ffffffffffffffffffffffffffffffffffffffff16815260200190815260200160002060008381526020019081526020016000206000905550505050565b600060016008805490506124b19190613782565b90506000600960008481526020019081526020016000205490506000600883815481106124e1576124e06133ee565b5b906000526020600020015490508060088381548110612503576125026133ee565b5b90600052602060002001819055508160096000838152602001908152602001600020819055506009600085815260200190815260200160002060009055600880548061255257612551613c91565b5b6001900381819060005260206000200160009055905550505050565b600061257983610d42565b905081600660008573ffffffffffffffffffffffffffffffffffffffff1673ffffffffffffffffffffffffffffffffffffffff168152602001908152602001600020600083815260200190815260200160002081905550806007600084815260200190815260200160002081905550505050565b8280546125f9906130e2565b90600052602060002090601f01602090048101928261261b5760008555612662565b82601f1061263457805160ff1916838001178555612662565b82800160010185558215612662579182015b82811115612661578251825591602001919060010190612646565b5b50905061266f9190612673565b5090565b5b8082111561268c576000816000905550600101612674565b5090565b6000604051905090565b600080fd5b600080fd5b60007fffffffff0000000000000000000000000000000000000000000000000000000082169050919050565b6126d9816126a4565b81146126e457600080fd5b50565b6000813590506126f6816126d0565b92915050565b6000602082840312156127125761271161269a565b5b6000612720848285016126e7565b91505092915050565b60008115159050919050565b61273e81612729565b82525050565b60006020820190506127596000830184612735565b92915050565b600081519050919050565b600082825260208201905092915050565b60005b8381101561279957808201518184015260208101905061277e565b838111156127a8576000848401525b50505050565b6000601f19601f8301169050919050565b60006127ca8261275f565b6127d4818561276a565b93506127e481856020860161277b565b6127ed816127ae565b840191505092915050565b6000602082019050818103600083015261281281846127bf565b905092915050565b6000819050919050565b61282d8161281a565b811461283857600080fd5b50565b60008135905061284a81612824565b92915050565b6000602082840312156128665761286561269a565b5b60006128748482850161283b565b91505092915050565b600073ffffffffffffffffffffffffffffffffffffffff82169050919050565b60006128a88261287d565b9050919050565b6128b88161289d565b82525050565b60006020820190506128d360008301846128af565b92915050565b6128e28161289d565b81146128ed57600080fd5b50565b6000813590506128ff816128d9565b92915050565b6000806040838503121561291c5761291b61269a565b5b600061292a858286016128f0565b925050602061293b8582860161283b565b9150509250929050565b61294e8161281a565b82525050565b60006020820190506129696000830184612945565b92915050565b6000806000606084860312156129885761298761269a565b5b6000612996868287016128f0565b93505060206129a7868287016128f0565b92505060406129b88682870161283b565b9150509250925092565b600081519050919050565b600082825260208201905092915050565b6000819050602082019050919050565b6129f78161289d565b82525050565b612a068161281a565b82525050565b600082825260208201905092915050565b6000612a288261275f565b612a328185612a0c565b9350612a4281856020860161277b565b612a4b816127ae565b840191505092915050565b600061010083016000830151612a6f60008601826129ee565b506020830151612a8260208601826129fd565b5060408301518482036040860152612a9a8282612a1d565b91505060608301518482036060860152612ab48282612a1d565b91505060808301518482036080860152612ace8282612a1d565b91505060a083015184820360a0860152612ae88282612a1d565b91505060c083015184820360c0860152612b028282612a1d565b91505060e083015184820360e0860152612b1c8282612a1d565b9150508091505092915050565b6000612b358383612a56565b905092915050565b6000602082019050919050565b6000612b55826129c2565b612b5f81856129cd565b935083602082028501612b71856129de565b8060005b85811015612bad5784840389528151612b8e8582612b29565b9450612b9983612b3d565b925060208a01995050600181019050612b75565b50829750879550505050505092915050565b60006020820190508181036000830152612bd98184612b4a565b905092915050565b600060208284031215612bf757612bf661269a565b5b6000612c05848285016128f0565b91505092915050565b6000612c198261287d565b9050919050565b612c2981612c0e565b8114612c3457600080fd5b50565b600081359050612c4681612c20565b92915050565b600060208284031215612c6257612c6161269a565b5b6000612c7084828501612c37565b91505092915050565b600080fd5b600080fd5b7f4e487b7100000000000000000000000000000000000000000000000000000000600052604160045260246000fd5b612cbb826127ae565b810181811067ffffffffffffffff82111715612cda57612cd9612c83565b5b80604052505050565b6000612ced612690565b9050612cf98282612cb2565b919050565b600067ffffffffffffffff821115612d1957612d18612c83565b5b612d22826127ae565b9050602081019050919050565b82818337600083830152505050565b6000612d51612d4c84612cfe565b612ce3565b905082815260208101848484011115612d6d57612d6c612c7e565b5b612d78848285612d2f565b509392505050565b600082601f830112612d9557612d94612c79565b5b8135612da5848260208601612d3e565b91505092915050565b60008060008060008060c08789031215612dcb57612dca61269a565b5b600087013567ffffffffffffffff811115612de957612de861269f565b5b612df589828a01612d80565b965050602087013567ffffffffffffffff811115612e1657612e1561269f565b5b612e2289828a01612d80565b955050604087013567ffffffffffffffff811115612e4357612e4261269f565b5b612e4f89828a01612d80565b945050606087013567ffffffffffffffff811115612e7057612e6f61269f565b5b612e7c89828a01612d80565b935050608087013567ffffffffffffffff811115612e9d57612e9c61269f565b5b612ea989828a01612d80565b92505060a087013567ffffffffffffffff811115612eca57612ec961269f565b5b612ed689828a01612d80565b9150509295509295509295565b612eec81612729565b8114612ef757600080fd5b50565b600081359050612f0981612ee3565b92915050565b60008060408385031215612f2657612f2561269a565b5b6000612f34858286016128f0565b9250506020612f4585828601612efa565b9150509250929050565b600067ffffffffffffffff821115612f6a57612f69612c83565b5b612f73826127ae565b9050602081019050919050565b6000612f93612f8e84612f4f565b612ce3565b905082815260208101848484011115612faf57612fae612c7e565b5b612fba848285612d2f565b509392505050565b600082601f830112612fd757612fd6612c79565b5b8135612fe7848260208601612f80565b91505092915050565b6000806000806080858703121561300a5761300961269a565b5b6000613018878288016128f0565b9450506020613029878288016128f0565b935050604061303a8782880161283b565b925050606085013567ffffffffffffffff81111561305b5761305a61269f565b5b61306787828801612fc2565b91505092959194509250565b6000806040838503121561308a5761308961269a565b5b6000613098858286016128f0565b92505060206130a9858286016128f0565b9150509250929050565b7f4e487b7100000000000000000000000000000000000000000000000000000000600052602260045260246000fd5b600060028204905060018216806130fa57607f821691505b6020821081141561310e5761310d6130b3565b5b50919050565b7f4552433732313a20617070726f76616c20746f2063757272656e74206f776e6560008201527f7200000000000000000000000000000000000000000000000000000000000000602082015250565b600061317060218361276a565b915061317b82613114565b604082019050919050565b6000602082019050818103600083015261319f81613163565b9050919050565b7f4552433732313a20617070726f76652063616c6c6572206973206e6f7420746f60008201527f6b656e206f776e6572206e6f7220617070726f76656420666f7220616c6c0000602082015250565b6000613202603e8361276a565b915061320d826131a6565b604082019050919050565b60006020820190508181036000830152613231816131f5565b9050919050565b7f4552433732313a2063616c6c6572206973206e6f7420746f6b656e206f776e6560008201527f72206e6f7220617070726f766564000000000000000000000000000000000000602082015250565b6000613294602e8361276a565b915061329f82613238565b604082019050919050565b600060208201905081810360008301526132c381613287565b9050919050565b7f455243373231456e756d657261626c653a206f776e657220696e646578206f7560008201527f74206f6620626f756e6473000000000000000000000000000000000000000000602082015250565b6000613326602b8361276a565b9150613331826132ca565b604082019050919050565b6000602082019050818103600083015261335581613319565b9050919050565b7f455243373231456e756d657261626c653a20676c6f62616c20696e646578206f60008201527f7574206f6620626f756e64730000000000000000000000000000000000000000602082015250565b60006133b8602c8361276a565b91506133c38261335c565b604082019050919050565b600060208201905081810360008301526133e7816133ab565b9050919050565b7f4e487b7100000000000000000000000000000000000000000000000000000000600052603260045260246000fd5b7f4552433732313a20696e76616c696420746f6b656e2049440000000000000000600082015250565b600061345360188361276a565b915061345e8261341d565b602082019050919050565b6000602082019050818103600083015261348281613446565b9050919050565b7f4552433732313a2061646472657373207a65726f206973206e6f74206120766160008201527f6c6964206f776e65720000000000000000000000000000000000000000000000602082015250565b60006134e560298361276a565b91506134f082613489565b604082019050919050565b60006020820190508181036000830152613514816134d8565b9050919050565b7f4d75666174206d65206e616d206b616d616e6120686169000000000000000000600082015250565b600061355160178361276a565b915061355c8261351b565b602082019050919050565b6000602082019050818103600083015261358081613544565b9050919050565b60006101008201905061359d600083018b6128af565b6135aa602083018a612945565b81810360408301526135bc81896127bf565b905081810360608301526135d081886127bf565b905081810360808301526135e481876127bf565b905081810360a08301526135f881866127bf565b905081810360c083015261360c81856127bf565b905081810360e083015261362081846127bf565b90509998505050505050505050565b7f4552433732313a207472616e736665722066726f6d20696e636f72726563742060008201527f6f776e6572000000000000000000000000000000000000000000000000000000602082015250565b600061368b60258361276a565b91506136968261362f565b604082019050919050565b600060208201905081810360008301526136ba8161367e565b9050919050565b7f4552433732313a207472616e7366657220746f20746865207a65726f2061646460008201527f7265737300000000000000000000000000000000000000000000000000000000602082015250565b600061371d60248361276a565b9150613728826136c1565b604082019050919050565b6000602082019050818103600083015261374c81613710565b9050919050565b7f4e487b7100000000000000000000000000000000000000000000000000000000600052601160045260246000fd5b600061378d8261281a565b91506137988361281a565b9250828210156137ab576137aa613753565b5b828203905092915050565b60006137c18261281a565b91506137cc8361281a565b9250827fffffffffffffffffffffffffffffffffffffffffffffffffffffffffffffffff0382111561380157613800613753565b5b828201905092915050565b7f45524337323155524953746f726167653a2055524920736574206f66206e6f6e60008201527f6578697374656e7420746f6b656e000000000000000000000000000000000000602082015250565b6000613868602e8361276a565b91506138738261380c565b604082019050919050565b600060208201905081810360008301526138978161385b565b9050919050565b7f4552433732313a20617070726f766520746f2063616c6c657200000000000000600082015250565b60006138d460198361276a565b91506138df8261389e565b602082019050919050565b60006020820190508181036000830152613903816138c7565b9050919050565b7f4552433732313a207472616e7366657220746f206e6f6e20455243373231526560008201527f63656976657220696d706c656d656e7465720000000000000000000000000000602082015250565b600061396660328361276a565b91506139718261390a565b604082019050919050565b6000602082019050818103600083015261399581613959565b9050919050565b600081905092915050565b60006139b28261275f565b6139bc818561399c565b93506139cc81856020860161277b565b80840191505092915050565b60006139e482856139a7565b91506139f082846139a7565b91508190509392505050565b600081519050919050565b600082825260208201905092915050565b6000613a23826139fc565b613a2d8185613a07565b9350613a3d81856020860161277b565b613a46816127ae565b840191505092915050565b6000608082019050613a6660008301876128af565b613a7360208301866128af565b613a806040830185612945565b8181036060830152613a928184613a18565b905095945050505050565b600081519050613aac816126d0565b92915050565b600060208284031215613ac857613ac761269a565b5b6000613ad684828501613a9d565b91505092915050565b7f4552433732313a206d696e7420746f20746865207a65726f2061646472657373600082015250565b6000613b1560208361276a565b9150613b2082613adf565b602082019050919050565b60006020820190508181036000830152613b4481613b08565b9050919050565b7f4552433732313a20746f6b656e20616c7265616479206d696e74656400000000600082015250565b6000613b81601c8361276a565b9150613b8c82613b4b565b602082019050919050565b60006020820190508181036000830152613bb081613b74565b9050919050565b6000613bc28261281a565b91507fffffffffffffffffffffffffffffffffffffffffffffffffffffffffffffffff821415613bf557613bf4613753565b5b600182019050919050565b7f4e487b7100000000000000000000000000000000000000000000000000000000600052601260045260246000fd5b6000613c3a8261281a565b9150613c458361281a565b925082613c5557613c54613c00565b5b828204905092915050565b6000613c6b8261281a565b9150613c768361281a565b925082613c8657613c85613c00565b5b828206905092915050565b7f4e487b7100000000000000000000000000000000000000000000000000000000600052603160045260246000fdfea2646970667358221220cf45912c88d144ac59a31fcac734d56de6b440284d9142a2ffed59e8a5614fa964736f6c634300080a0033",
  "linkReferences": {},
  "deployedLinkReferences": {}
}